{
  "_format": "hh-sol-artifact-1",
  "contractName": "MockFactory",
  "sourceName": "infrastructure/contracts/MockFactory.sol",
  "abi": [
    {
      "anonymous": false,
      "inputs": [
        {
          "indexed": true,
          "internalType": "address",
          "name": "tokenA",
          "type": "address"
        },
        {
          "indexed": true,
          "internalType": "address",
          "name": "tokenB",
          "type": "address"
        },
        {
          "indexed": false,
          "internalType": "address",
          "name": "pair",
          "type": "address"
        }
      ],
      "name": "PairRegistered",
      "type": "event"
    },
    {
      "inputs": [
        {
          "internalType": "address",
          "name": "tokenA",
          "type": "address"
        },
        {
          "internalType": "address",
          "name": "tokenB",
          "type": "address"
        }
      ],
      "name": "getPair",
      "outputs": [
        {
          "internalType": "address",
          "name": "",
          "type": "address"
        }
      ],
      "stateMutability": "view",
      "type": "function"
    },
    {
      "inputs": [
        {
          "internalType": "bytes32",
          "name": "",
          "type": "bytes32"
        }
      ],
      "name": "pairByKey",
      "outputs": [
        {
          "internalType": "address",
          "name": "",
          "type": "address"
        }
      ],
      "stateMutability": "view",
      "type": "function"
    },
    {
      "inputs": [
        {
          "internalType": "address",
          "name": "tokenA",
          "type": "address"
        },
        {
          "internalType": "address",
          "name": "tokenB",
          "type": "address"
        },
        {
          "internalType": "address",
          "name": "pair",
          "type": "address"
        }
      ],
      "name": "registerPair",
      "outputs": [],
      "stateMutability": "nonpayable",
      "type": "function"
    }
  ],
  "bytecode": "0x608060405234801561001057600080fd5b506102e3806100206000396000f3fe608060405234801561001057600080fd5b50600436106100415760003560e01c8063122da2bc14610046578063bfbd02971461008b578063e6a43905146100a0575b600080fd5b61006f610054366004610202565b6000602081905290815260409020546001600160a01b031681565b6040516001600160a01b03909116815260200160405180910390f35b61009e610099366004610237565b6100b3565b005b61006f6100ae36600461027a565b61012c565b60006100bf848461015c565b6000818152602081815260409182902080546001600160a01b0319166001600160a01b038781169182179092559251928352929350858316928716917fe6000c0f4cdf928b1ea4c9c5dd77f9f08be3f46b5d1af0fc4a4a4d9ac78f4e9a910160405180910390a350505050565b600080600061013b858561015c565b81526020810191909152604001600020546001600160a01b03169392505050565b6000816001600160a01b0316836001600160a01b0316106101bb576040516bffffffffffffffffffffffff19606084811b8216602084015285901b166034820152604801604051602081830303815290604052805190602001206101fb565b6040516bffffffffffffffffffffffff19606085811b8216602084015284901b166034820152604801604051602081830303815290604052805190602001205b9392505050565b60006020828403121561021457600080fd5b5035919050565b80356001600160a01b038116811461023257600080fd5b919050565b60008060006060848603121561024c57600080fd5b6102558461021b565b92506102636020850161021b565b91506102716040850161021b565b90509250925092565b6000806040838503121561028d57600080fd5b6102968361021b565b91506102a46020840161021b565b9050925092905056fea2646970667358221220d728b402072eb4f56c7b8c5c7d4d179b04cc9f4fdf333ca24407fca37690ab7d64736f6c63430008180033",
  "linkReferences": {},
  "deployedLinkReferences": {}
}