{
  "_format": "hh-sol-artifact-1",
  "contractName": "MockQuoter",
  "sourceName": "infrastructure/contracts/MockQuoter.sol",
  "abi": [
    {
      "inputs": [
        {
          "internalType": "address",
          "name": "",
          "type": "address"
        },
        {
          "internalType": "address",
          "name": "",
          "type": "address"
        },
        {
          "internalType": "uint24",
          "name": "",
          "type": "uint24"
        },
        {
          "internalType": "uint256",
          "name": "amountIn",
          "type": "uint256"
        },
        {
          "internalType": "uint160",
          "name": "",
          "type": "uint160"
        }
      ],
      "name": "quoteExactInputSingle",
      "outputs": [
        {
          "internalType": "uint256",
          "name": "amountOut",
          "type": "uint256"
        }
      ],
      "stateMutability": "pure",
      "type": "function"
    }
  ],
  "bytecode": "0x608060405234801561001057600080fd5b50610107806100206000396000f3fe6080604052348015600f57600080fd5b506004361060285760003560e01c8063f7729d4314602d575b600080fd5b604060383660046069565b509392505050565b60405190815260200160405180910390f35b6001600160a01b0381168114606657600080fd5b50565b600080600080600060a08688031215608057600080fd5b85356089816052565b945060208601356097816052565b9350604086013562ffffff8116811460ae57600080fd5b925060608601359150608086013560c3816052565b80915050929550929590935056fea264697066735822122093d6a9537d36ff59f8722dcf988de2ac29ab31b10f99f4b07a22388b02ede27064736f6c63430008180033",
  "linkReferences": {},
  "deployedLinkReferences": {}
}