{
  "_format": "hh-sol-artifact-1",
  "contractName": "MockEscrow",
  "sourceName": "infrastructure/contracts/MockEscrow.sol",
  "abi": [
    {
      "anonymous": false,
      "inputs": [
        {
          "indexed": true,
          "internalType": "bytes32",
          "name": "dealId",
          "type": "bytes32"
        },
        {
          "indexed": true,
          "internalType": "address",
          "name": "maker",
          "type": "address"
        },
        {
          "indexed": true,
          "internalType": "address",
          "name": "taker",
          "type": "address"
        },
        {
          "indexed": false,
          "internalType": "uint256",
          "name": "makerAmount",
          "type": "uint256"
        },
        {
          "indexed": false,
          "internalType": "uint256",
          "name": "takerAmount",
          "type": "uint256"
        }
      ],
      "name": "DealOpened",
      "type": "event"
    },
    {
      "anonymous": false,
      "inputs": [
        {
          "indexed": true,
          "internalType": "bytes32",
          "name": "dealId",
          "type": "bytes32"
        }
      ],
      "name": "DealSettled",
      "type": "event"
    },
    {
      "anonymous": false,
      "inputs": [
        {
          "indexed": true,
          "internalType": "bytes32",
          "name": "dealId",
          "type": "bytes32"
        },
        {
          "indexed": true,
          "internalType": "address",
          "name": "maker",
          "type": "address"
        }
      ],
      "name": "MakerFunded",
      "type": "event"
    },
    {
      "anonymous": false,
      "inputs": [
        {
          "indexed": true,
          "internalType": "bytes32",
          "name": "dealId",
          "type": "bytes32"
        },
        {
          "indexed": true,
          "internalType": "address",
          "name": "taker",
          "type": "address"
        }
      ],
      "name": "TakerFunded",
      "type": "event"
    },
    {
      "inputs": [
        {
          "internalType": "bytes32",
          "name": "",
          "type": "bytes32"
        }
      ],
      "name": "deals",
      "outputs": [
        {
          "internalType": "address",
          "name": "maker",
          "type": "address"
        },
        {
          "internalType": "address",
          "name": "taker",
          "type": "address"
        },
        {
          "internalType": "uint256",
          "name": "makerAmount",
          "type": "uint256"
        },
        {
          "internalType": "uint256",
          "name": "takerAmount",
          "type": "uint256"
        },
        {
          "internalType": "bool",
          "name": "makerFunded",
          "type": "bool"
        },
        {
          "internalType": "bool",
          "name": "takerFunded",
          "type": "bool"
        },
        {
          "internalType": "bool",
          "name": "settled",
          "type": "bool"
        }
      ],
      "stateMutability": "view",
      "type": "function"
    },
    {
      "inputs": [
        {
          "internalType": "bytes32",
          "name": "dealId",
          "type": "bytes32"
        }
      ],
      "name": "fundMaker",
      "outputs": [],
      "stateMutability": "nonpayable",
      "type": "function"
    },
    {
      "inputs": [
        {
          "internalType": "bytes32",
          "name": "dealId",
          "type": "bytes32"
        }
      ],
      "name": "fundTaker",
      "outputs": [],
      "stateMutability": "nonpayable",
      "type": "function"
    },
    {
      "inputs": [
        {
          "internalType": "bytes32",
          "name": "dealId",
          "type": "bytes32"
        },
        {
          "internalType": "address",
          "name": "taker",
          "type": "address"
        },
        {
          "internalType": "uint256",
          "name": "makerAmount",
          "type": "uint256"
        },
        {
          "internalType": "uint256",
          "name": "takerAmount",
          "type": "uint256"
        }
      ],
      "name": "openDeal",
      "outputs": [],
      "stateMutability": "nonpayable",
      "type": "function"
    },
    {
      "inputs": [
        {
          "internalType": "bytes32",
          "name": "dealId",
          "type": "bytes32"
        }
      ],
      "name": "settle",
      "outputs": [],
      "stateMutability": "nonpayable",
      "type": "function"
    }
  ],
  "bytecode": "0x608060405234801561001057600080fd5b506107a2806100206000396000f3fe608060405234801561001057600080fd5b50600436106100575760003560e01c806381cd872a1461005c5780638424101414610105578063987757dd1461011a578063b5d6918e1461012d578063f4ff4f7214610140575b600080fd5b6100bb61006a3660046106a5565b600060208190529081526040902080546001820154600283015460038401546004909401546001600160a01b03938416949390921692909160ff808216916101008104821691620100009091041687565b604080516001600160a01b03988916815297909616602088015294860193909352606085019190915215156080840152151560a0830152151560c082015260e00160405180910390f35b6101186101133660046106a5565b610153565b005b6101186101283660046106a5565b61027b565b61011861013b3660046106be565b6103b2565b61011861014e3660046106a5565b610590565b600081815260208190526040902080546001600160a01b03166101915760405162461bcd60e51b815260040161018890610707565b60405180910390fd5b60018101546001600160a01b031633146101bd5760405162461bcd60e51b815260040161018890610728565b600481015462010000900460ff16156101e85760405162461bcd60e51b81526004016101889061074b565b6004810154610100900460ff16156102395760405162461bcd60e51b8152602060048201526014602482015273151052d15497d053149150511657d1955391115160621b6044820152606401610188565b60048101805461ff001916610100179055604051339083907f17ca22a3eef7add6851b8c5397bf279db12e4044b3024c0bf459a48d522eb3a890600090a35050565b600081815260208190526040902080546001600160a01b03166102b05760405162461bcd60e51b815260040161018890610707565b600481015462010000900460ff16156102db5760405162461bcd60e51b81526004016101889061074b565b80546001600160a01b03163314806102ff575060018101546001600160a01b031633145b61031b5760405162461bcd60e51b815260040161018890610728565b600481015460ff16801561033857506004810154610100900460ff165b6103705760405162461bcd60e51b81526020600482015260096024820152684e4f545f524541445960b81b6044820152606401610188565b60048101805462ff000019166201000017905560405182907f9aa0ecf81d5cd89d22d5e22ef728ff71522f6ccbcece22dc9ef55d277ea0828390600090a25050565b600084815260208190526040902080546001600160a01b0316156104015760405162461bcd60e51b815260206004820152600660248201526545584953545360d01b6044820152606401610188565b6040518060e00160405280336001600160a01b03168152602001856001600160a01b031681526020018481526020018381526020016000151581526020016000151581526020016000151581525060008087815260200190815260200160002060008201518160000160006101000a8154816001600160a01b0302191690836001600160a01b0316021790555060208201518160010160006101000a8154816001600160a01b0302191690836001600160a01b03160217905550604082015181600201556060820151816003015560808201518160040160006101000a81548160ff02191690831515021790555060a08201518160040160016101000a81548160ff02191690831515021790555060c08201518160040160026101000a81548160ff021916908315150217905550905050836001600160a01b0316336001600160a01b0316867f0f9a866fc0d715cb038aaae89caf0de79a9f6e596a7751b864c645252b8f8e788686604051610581929190918252602082015260400190565b60405180910390a45050505050565b600081815260208190526040902080546001600160a01b03166105c55760405162461bcd60e51b815260040161018890610707565b80546001600160a01b031633146105ee5760405162461bcd60e51b815260040161018890610728565b600481015462010000900460ff16156106195760405162461bcd60e51b81526004016101889061074b565b600481015460ff16156106655760405162461bcd60e51b8152602060048201526014602482015273135052d15497d053149150511657d1955391115160621b6044820152606401610188565b60048101805460ff19166001179055604051339083907fed98b846dbe64fc3a61733aae710c0fbf96dc9a04f3c91f33ffbfffe06e3e41690600090a35050565b6000602082840312156106b757600080fd5b5035919050565b600080600080608085870312156106d457600080fd5b8435935060208501356001600160a01b03811681146106f257600080fd5b93969395505050506040820135916060013590565b6020808252600790820152664d495353494e4760c81b604082015260600190565b6020808252600990820152682327a92124a22222a760b91b604082015260600190565b60208082526007908201526614d1551513115160ca1b60408201526060019056fea2646970667358221220551b2a7f9cf6f02ee20a3199d3e67740738805dd3a04ba0aa623d4e614afac0664736f6c63430008180033",
  "linkReferences": {},
  "deployedLinkReferences": {}
}