{
  "_format": "hh-sol-artifact-1",
  "contractName": "MockRouter",
  "sourceName": "infrastructure/contracts/MockRouter.sol",
  "abi": [
    {
      "anonymous": false,
      "inputs": [
        {
          "indexed": true,
          "internalType": "bytes32",
          "name": "executionRef",
          "type": "bytes32"
        },
        {
          "indexed": true,
          "internalType": "address",
          "name": "sender",
          "type": "address"
        },
        {
          "indexed": true,
          "internalType": "address",
          "name": "recipient",
          "type": "address"
        },
        {
          "indexed": false,
          "internalType": "uint256",
          "name": "amountIn",
          "type": "uint256"
        },
        {
          "indexed": false,
          "internalType": "uint256",
          "name": "amountOut",
          "type": "uint256"
        }
      ],
      "name": "SwapExecuted",
      "type": "event"
    },
    {
      "inputs": [
        {
          "internalType": "uint256",
          "name": "amountIn",
          "type": "uint256"
        },
        {
          "internalType": "uint256",
          "name": "amountOutMin",
          "type": "uint256"
        },
        {
          "internalType": "address[]",
          "name": "path",
          "type": "address[]"
        },
        {
          "internalType": "address",
          "name": "to",
          "type": "address"
        },
        {
          "internalType": "uint256",
          "name": "deadline",
          "type": "uint256"
        }
      ],
      "name": "swapExactTokensForTokens",
      "outputs": [
        {
          "internalType": "uint256[]",
          "name": "amounts",
          "type": "uint256[]"
        }
      ],
      "stateMutability": "nonpayable",
      "type": "function"
    }
  ],
  "bytecode": "0x608060405234801561001057600080fd5b506105a8806100206000396000f3fe608060405234801561001057600080fd5b506004361061002b5760003560e01c806338ed173914610030575b600080fd5b61004361003e36600461040b565b610059565b60405161005091906104ad565b60405180910390f35b6060600284101561009e5760405162461bcd60e51b8152600401610095906020808252600490820152630a082a8960e31b604082015260600190565b60405180910390fd5b814211156100d95760405162461bcd60e51b8152602060048201526008602482015267444541444c494e4560c01b6044820152606401610095565b6000858560008181106100ee576100ee6104f1565b90506020020160208101906101039190610507565b905060008686610114600182610529565b818110610123576101236104f1565b90506020020160208101906101389190610507565b6040516323b872dd60e01b8152336004820152306024820152604481018b90529091506001600160a01b038316906323b872dd906064016020604051808303816000875af115801561018e573d6000803e3d6000fd5b505050506040513d601f19601f820116820180604052508101906101b29190610550565b6101ec5760405162461bcd60e51b815260206004820152600b60248201526a2a2920a729a322a92fa4a760a91b6044820152606401610095565b88888110156102285760405162461bcd60e51b8152602060048201526008602482015267534c49505041474560c01b6044820152606401610095565b60405163a9059cbb60e01b81526001600160a01b0387811660048301526024820183905283169063a9059cbb906044016020604051808303816000875af1158015610277573d6000803e3d6000fd5b505050506040513d601f19601f8201168201806040525081019061029b9190610550565b6102d65760405162461bcd60e51b815260206004820152600c60248201526b1514905394d1915497d3d55560a21b6044820152606401610095565b6040516bffffffffffffffffffffffff1933606090811b8216602084015288811b8216603484015285811b8216604884015284901b16605c820152607081018b905243609082015260009060b00160408051601f1981840301815282825280516020918201208e845290830185905292506001600160a01b03891691339184917f2f4c76c8d18f45069b0941499205a7fceaaa3caf9e2e6328f6a544cd339120f3910160405180910390a460408051600280825260608201835290916020830190803683370190505094508a856000815181106103b5576103b56104f1565b60200260200101818152505081856001815181106103d5576103d56104f1565b602002602001018181525050505050509695505050505050565b80356001600160a01b038116811461040657600080fd5b919050565b60008060008060008060a0878903121561042457600080fd5b8635955060208701359450604087013567ffffffffffffffff8082111561044a57600080fd5b818901915089601f83011261045e57600080fd5b81358181111561046d57600080fd5b8a60208260051b850101111561048257600080fd5b60208301965080955050505061049a606088016103ef565b9150608087013590509295509295509295565b6020808252825182820181905260009190848201906040850190845b818110156104e5578351835292840192918401916001016104c9565b50909695505050505050565b634e487b7160e01b600052603260045260246000fd5b60006020828403121561051957600080fd5b610522826103ef565b9392505050565b8181038181111561054a57634e487b7160e01b600052601160045260246000fd5b92915050565b60006020828403121561056257600080fd5b8151801515811461052257600080fdfea26469706673582212202955a1feed7945a52266486cc440e4e06fdb1d5f7e50f589204c134a52e246bf64736f6c63430008180033",
  "linkReferences": {},
  "deployedLinkReferences": {}
}