{"infrastructure/contracts/MockQuoter.sol":{"MockQuoter":{"abi":[{"inputs":[{"internalType":"address","name":"","type":"address"},{"internalType":"address","name":"","type":"address"},{"internalType":"uint24","name":"","type":"uint24"},{"internalType":"uint256","name":"amountIn","type":"uint256"},{"internalType":"uint160","name":"","type":"uint160"}],"name":"quoteExactInputSingle","outputs":[{"internalType":"uint256","name":"amountOut","type":"uint256"}],"stateMutability":"pure","type":"function"}],"evm":{"bytecode":{"linkReferences":{},"object":"608060405234801561001057600080fd5b50610107806100206000396000f3fe6080604052348015600f57600080fd5b506004361060285760003560e01c8063f7729d4314602d575b600080fd5b604060383660046069565b509392505050565b60405190815260200160405180910390f35b6001600160a01b0381168114606657600080fd5b50565b600080600080600060a08688031215608057600080fd5b85356089816052565b945060208601356097816052565b9350604086013562ffffff8116811460ae57600080fd5b925060608601359150608086013560c3816052565b80915050929550929590935056fea264697066735822122093d6a9537d36ff59f8722dcf988de2ac29ab31b10f99f4b07a22388b02ede27064736f6c63430008180033","opcodes":"PUSH1 0x80 PUSH1 0x40 MSTORE CALLVALUE DUP1 ISZERO PUSH2 0x10 JUMPI PUSH1 0x0 DUP1 REVERT JUMPDEST POP PUSH2 0x107 DUP1 PUSH2 0x20 PUSH1 0x0 CODECOPY PUSH1 0x0 RETURN INVALID PUSH1 0x80 PUSH1 0x40 MSTORE CALLVALUE DUP1 ISZERO PUSH1 0xF JUMPI PUSH1 0x0 DUP1 REVERT JUMPDEST POP PUSH1 0x4 CALLDATASIZE LT PUSH1 0x28 JUMPI PUSH1 0x0 CALLDATALOAD PUSH1 0xE0 SHR DUP1 PUSH4 0xF7729D43 EQ PUSH1 0x2D JUMPI JUMPDEST PUSH1 0x0 DUP1 REVERT JUMPDEST PUSH1 0x40 PUSH1 0x38 CALLDATASIZE PUSH1 0x4 PUSH1 0x69 JUMP JUMPDEST POP SWAP4 SWAP3 POP POP POP JUMP JUMPDEST PUSH1 0x40 MLOAD SWAP1 DUP2 MSTORE PUSH1 0x20 ADD PUSH1 0x40 MLOAD DUP1 SWAP2 SUB SWAP1 RETURN JUMPDEST PUSH1 0x1 PUSH1 0x1 PUSH1 0xA0 SHL SUB DUP2 AND DUP2 EQ PUSH1 0x66 JUMPI PUSH1 0x0 DUP1 REVERT JUMPDEST POP JUMP JUMPDEST PUSH1 0x0 DUP1 PUSH1 0x0 DUP1 PUSH1 0x0 PUSH1 0xA0 DUP7 DUP9 SUB SLT ISZERO PUSH1 0x80 JUMPI PUSH1 0x0 DUP1 REVERT JUMPDEST DUP6 CALLDATALOAD PUSH1 0x89 DUP2 PUSH1 0x52 JUMP JUMPDEST SWAP5 POP PUSH1 0x20 DUP7 ADD CALLDATALOAD PUSH1 0x97 DUP2 PUSH1 0x52 JUMP JUMPDEST SWAP4 POP PUSH1 0x40 DUP7 ADD CALLDATALOAD PUSH3 0xFFFFFF DUP2 AND DUP2 EQ PUSH1 0xAE JUMPI PUSH1 0x0 DUP1 REVERT JUMPDEST SWAP3 POP PUSH1 0x60 DUP7 ADD CALLDATALOAD SWAP2 POP PUSH1 0x80 DUP7 ADD CALLDATALOAD PUSH1 0xC3 DUP2 PUSH1 0x52 JUMP JUMPDEST DUP1 SWAP2 POP POP SWAP3 SWAP6 POP SWAP3 SWAP6 SWAP1 SWAP4 POP JUMP INVALID LOG2 PUSH5 0x6970667358 0x22 SLT KECCAK256 SWAP4 0xD6 0xA9 MSTORE8 PUSH30 0x36FF59F8722DCF988DE2AC29AB31B10F99F4B07A22388B02EDE27064736F PUSH13 0x63430008180033000000000000 "},"methodIdentifiers":{"quoteExactInputSingle(address,address,uint24,uint256,uint160)":"f7729d43"}}}}}